:100000000C9463000C948B000C948B000C948B006C
:100010000C948B000C948B000C948B000C948B0034
:100020000C948B000C948B000C948B000C948B0024
:100030000C948B000C948B000C948B000C948B0014
:100040000C94ED040C948B000C94F6020C94480173
:100050000C948B000C948B000C948B000C948B00F4
:100060000C948B000C948B000000000023002600F1
:10007000290000000000240027002A0000000000E2
:10008000250028002B0004040404040404040202D4
:100090000202020203030303030301020408102007
:1000A0004080010204081020010204081020000012
:1000B0000008000201000003040700000000000027
:1000C00000003705D40A11241FBECFEFD8E0DEBFF1
:1000D000CDBF22E0A6E7B1E001C01D92AC39B20766
:1000E000E1F711E0A0E0B1E0E2E8FDE102C0059037
:1000F0000D92A637B107D9F710E0C2E6D0E004C0F0
:100100002197FE010E947C0DC136D107C9F70E94DC
:1001100095050C94B40E0C940000E6E7F1E0A0897C
:10012000B18982E08C93A485B5851C92A685B7859C
:100130008FEC8C93108EA489B58986E08C93A2896C
:10014000B3898C9180618C93A289B3898C918860EA
:100150008C93A289B3898C9180688C930288F389EF
:10016000E02D80818F7D80830895CF92DF92EF9282
:10017000FF920F931F93CF93DF936C017A018B0152
:10018000C0E0D0E0CE15DF0589F0D8016D918D017A
:10019000D601ED91FC910190F081E02DC601099509
:1001A000892B11F47E0102C02196ECCFC701DF91AB
:1001B000CF911F910F91FF90EF90DF90CF90089516
:1001C00086E791E00E94A30121E0892B09F420E059
:1001D000822F08956115710579F0FB0101900020CF
:1001E000E9F73197AF01461B570BDC01ED91FC910C
:1001F0000280F381E02D099480E090E008954F9211
:100200005F926F927F92EF92FF920F931F93CF9323
:10021000DF93CDB7DEB7A1970FB6F894DEBF0FBE60
:10022000CDBF7C01FA01CB0119A2223008F42AE0EB
:100230008E010F5D1F4F422E512C612C712CBF017E
:10024000A30192010E94040CF901CA010150110995
:100250006A3014F4605D01C0695CD8016C93232B93
:10026000242B252B61F7B801C7010E94EA00A19653
:100270000FB6F894DEBF0FBECDBFDF91CF911F91B7
:100280000F91FF90EF907F906F905F904F90089547
:100290001F920F920FB60F9211242F933F934F93FB
:1002A0005F936F937F938F939F93AF93BF93EF93DE
:1002B000FF9386E791E00E942803FF91EF91BF91A1
:1002C000AF919F918F917F916F915F914F913F91EE
:1002D0002F910F900FBE0F901F901895089580E0FA
:1002E00090E00895FC01538D448D252F30E0842F3C
:1002F00090E0821B930B541710F0CF96089501974E
:100300000895FC01918D828D981761F0828DDF0137
:10031000A80FB11D5D968C91928D9F5F9F73928FF8
:1003200090E008958FEF9FEF0895FC01918D828DED
:10033000981731F0828DE80FF11D858D90E00895BA
:100340008FEF9FEF0895FC01918D228D892F90E012
:10035000805C9F4F821B91098F739927089580E0DD
:1003600090E0892B29F00E94E00081110C9400009C
:100370000895833081F028F4813099F08230A1F023
:1003800008958730A9F08830B9F08430D1F4809195
:1003900080008F7D03C0809180008F7780938000E4
:1003A000089584B58F7702C084B58F7D84BD08958C
:1003B0008091B0008F7703C08091B0008F7D8093D3
:1003C000B00008953FB7F8948091940290919502FF
:1003D000A0919602B091970226B5A89B05C02F3F29
:1003E00019F00196A11DB11D3FBFBA2FA92F982F5B
:1003F0008827820F911DA11DB11DBC01CD0142E0D6
:10040000660F771F881F991F4A95D1F70895DF92CD
:10041000EF92FF920F931F93CF93DF93CDB7DEB789
:10042000EE970FB6F894DEBF0FBECDBF8C017B01F7
:10043000D42E8FEF840FD801ED91FC91823020F4FF
:100440000480F581E02D05C0411105C00280F381D3
:10045000E02DC8010995D801ED91FC910084F1854A
:10046000E02D20E041E0B701C8010995B5E0DB16B9
:1004700009F43FC0D801ED91FC910280F381E02D99
:10048000C8010995B2E0DB1234C0D801ED91FC91AE
:100490000084F185E02D20E041E0BE016F5F7F4FD9
:1004A000C801099540E0D8011C968C91481708F5C1
:1004B000842F90E0880F991FF701E80FF91F21E0C2
:1004C00030E02C0F3D1F820F931FD8011E962D91F7
:1004D0003C911F97DC018D919C91B901681B790BB0
:1004E000CB0120813181820F931F918380834F5FE5
:1004F000DACFEE960FB6F894DEBF0FBECDBFDF9118
:10050000CF911F910F91FF90EF90DF9008950E947F
:10051000AF0EEF92FF920F931F93CF93DF931F9233
:10052000CDB7DEB77C018B01FC01138212821582EC
:1005300014821782168211861086118A108A403220
:1005400018F08FE1848702C0FC014487F70182859F
:100550009385892B11F080E00DC0F701848590E030
:1005600029830E94820DF701938782872981892B35
:1005700091F714C0F7019485891778F4482F50E05B
:10058000F801E40FF51F9081F70162857385FB0187
:10059000E40FF51F90838F5FEDCF25870F90DF91DC
:1005A000CF911F910F91FF90EF900895EF92FF92DE
:1005B0000F93CF93DF93EC017901202FE881F9812C
:1005C0003697808191818C0F9D1F0E948902E8815E
:1005D000F981369780819181C80FD91FFF86EE86F9
:1005E000DF91CF910F91FF90EF9008951F920F929E
:1005F0000FB60F9211242F938F939F93EF93FF9336
:10060000E0918601F09187018081E0918C01F09169
:100610008D0182FD12C0908180918F018F5F8F7359
:1006200020919001821751F0E0918F01F0E0EA589B
:10063000FE4F958F80938F0101C08081FF91EF91D4
:100640009F918F912F910F900FBE0F901F90189533
:10065000FC01848DDF01A80FB11DA35ABF4F2C915F
:10066000848D90E001968F739927848FA689B7892E
:100670002C93A089B1898C9180648C93938D848D07
:10068000981306C00288F389E02D80818F7D8083D6
:100690000895EF92FF920F931F93CF93DF93EC0196
:1006A00081E0888F9B8D8C8D981305C0E889F9892E
:1006B000808185FD24C0F62E0B8D10E00F5F1F4F4B
:1006C0000F731127E02E8C8DE8120CC00FB607FCBB
:1006D000FACFE889F989808185FFF5CFCE010E94A4
:1006E0002803F1CF8B8DFE01E80FF11DE35AFF4F78
:1006F000F0820B8FEA89FB898081806207C0EE89D6
:10070000FF896083E889F98980818064808381E042
:1007100090E0DF91CF911F910F91FF90EF9008959E
:10072000CF93DF93EC01888D8823C9F0EA89FB8998
:10073000808185FD05C0A889B9898C9186FD0FC08F
:100740000FB607FCF5CF808185FFF2CFA889B98964
:100750008C9185FFEDCFCE010E942803E7CFDF917A
:10076000CF9108951F93CF93DF93282F30E0F901A5
:10077000E255FF4F8491F901E656FF4FD491F901FC
:10078000EA57FF4FC491CC23C9F0162F81110E9464
:10079000B901EC2FF0E0EE0FFF1FE458FF4FA591D9
:1007A000B4918FB7F894111105C09C91ED2FE0958D
:1007B000E92302C0EC91ED2BEC938FBFDF91CF9139
:1007C0001F910895CF93DF9390E0FC01E656FF4F11
:1007D0002491FC01EA57FF4F8491882361F190E056
:1007E000880F991FFC01EE58FF4FC591D491FC0171
:1007F000E458FF4FA591B491611109C09FB7F894D7
:100800008881209582238883EC912E230BC062304F
:1008100061F49FB7F8943881822F80958323888371
:10082000EC912E2B2C939FBF06C08FB7F894E881D4
:100830002E2B28838FBFDF91CF910895CF93DF9325
:10084000FC0185858F3F61F0EF0161E00E94E203CA
:1008500061E08D850E94B2038BE193E00197F1F78F
:10086000DF91CF910895CF93DF93FC0185858F3F72
:1008700061F0EF0161E00E94E20360E08D850E947B
:10088000B2038BE193E00197F1F7DF91CF910895E7
:100890001F93CF93DF93182FEB0161E00E94E203D7
:1008A000209711F460E004C0CF3FD10539F461E036
:1008B000812FDF91CF911F910C94B203E12FF0E0D3
:1008C000E255FF4FE491E330F9F048F4E130B9F03C
:1008D000E230A1F584B5806284BDC8BD34C0E73084
:1008E000E9F0E83019F1E43049F580918000806248
:1008F00080938000D0938B00C0938A0024C084B57D
:10090000806884BDC7BD1FC08091800080688093CF
:100910008000D0938900C093880015C08091B000FA
:1009200080688093B000C093B3000DC08091B00088
:1009300080628093B000C093B40005C0C038D10578
:100940000CF0B5CFAFCFDF91CF911F9108958F926B
:100950009F92AF92BF92CF92DF92EF92FF926B0184
:100960007C010E94E2014B015C01C114D104E1044D
:10097000F104F1F00E94E201DC01CB018819990930
:10098000AA09BB09883E9340A105B10570F321E097
:10099000C21AD108E108F10888EE880E83E0981E9B
:1009A000A11CB11CC114D104E104F10419F7DDCF7D
:1009B000FF90EF90DF90CF90BF90AF909F908F907F
:1009C00008952FB7F89460919002709191028091F0
:1009D0009202909193022FBF08951F920F920FB62B
:1009E0000F9211242F933F938F939F93AF93BF93B5
:1009F0008091900290919102A0919202B091930205
:100A000030918F0223E0230F2D3720F40196A11D92
:100A1000B11D05C026E8230F0296A11DB11D20932C
:100A20008F028093900290939102A0939202B093D0
:100A300093028091940290919502A0919602B091B8
:100A400097020196A11DB11D809394029093950287
:100A5000A0939602B0939702BF91AF919F918F910F
:100A60003F912F910F900FBE0F901F9018950F93ED
:100A7000E6E7F1E01382128288EE93E0A0E0B0E0B6
:100A800084839583A683B78382E191E091838083F9
:100A900085EC90E09587848784EC90E09787868743
:100AA00080EC90E0918B808B81EC90E0938B828B3B
:100AB00082EC90E0958B848B86EC90E0978B868B14
:100AC000118E128E138E148EE7E4F2E016821782D6
:100AD000108611861286138614861586168617864A
:100AE000108A118A128A138A148A158AE3E1F2E0C5
:100AF000158214821782168211861086138612863A
:100B00001586148684E391E09183808386E491E0E6
:100B1000938382830CE024EC39E048E060E071E0EC
:100B2000CF010E94D6020F910895CF93DF93CDB7E6
:100B3000DEB7C356D1090FB6F894DEBF0FBECDBFE6
:100B4000789484B5826084BD84B5816084BD85B5A8
:100B5000826085BD85B5816085BD80916E008160B4
:100B600080936E001092810080918100826080935A
:100B7000810080918100816080938100809180005C
:100B80008160809380008091B10084608093B10087
:100B90008091B00081608093B00080917A00846081
:100BA00080937A0080917A00826080937A008091AD
:100BB0007A00816080937A0080917A0080688093C7
:100BC0007A001092C10010928B0210928C02109247
:100BD0008D0210928E021092490210924A021092D7
:100BE0004B0210924C020E94E1046B017C014B010C
:100BF0005C0128EB820E2BE0921EA11CB11C0E940E
:100C0000E1046C157D058E059F0528F08616970674
:100C1000A806B906A0F786E791E090938A02809330
:100C200089020E948D000E94E10460934902709342
:100C30004A0280934B0290934C0260E571E08091F0
:100C4000890290918A020E94EA000E94E1046B01ED
:100C50007C014B015C013AE0830E911CA11CB11C8C
:100C60000E94E1046C157D058E059F0528F086160F
:100C70009706A806B906A0F781E080935D0264EFAD
:100C800071E080E090E00E94A70414E061E0812F11
:100C90000E94E2031F5F1830C9F761E084E00E9400
:100CA000B20361E08DE00E94B20304E610E080919F
:100CB000190290911A02892B39F0809117029091B4
:100CC0001802892BD1F41CC0E0902102F12CC7013D
:100CD000880F991F0E94820D90931A028093190227
:100CE000009709F4A6C0FC0180E090E08E159F05F6
:100CF00024F7119211920196F9CFE12CF12C1DC02D
:100D0000E0902102F12CC701880F991F0E94820DEB
:100D10009093180280931702009709F48AC02091DB
:100D2000230230912402FC0180E090E08E159F05A3
:100D300024F7219331930196F9CF41E0BE016F5B17
:100D40007F4F85E192E00E94070280902102912C62
:100D5000AE014F5F5F4F5A01FE01EF5BFF4F405EF8
:100D60005F4FCA01350120E030E0281539054CF508
:100D7000E114F10489F0DC01CD90DC906081718197
:100D8000C616D70648F0D301CD90DC906081718102
:100D90006C157D0548F00DC060817181DC016D939B
:100DA0007C93E114F10479F760817181D3016D9333
:100DB0007C932F5F3F4FB2E06B0E711C3296029610
:100DC000D4CFEFEFEE1AFE0AFAE0EF16F10409F0C5
:100DD000B4CFE0901702F0901802A0911902B091E0
:100DE0001A0220E030E08091210290E028173907B4
:100DF00004F5F501819191915F016D917C911197BD
:100E00006817790718F411969C938E93FA018191D3
:100E10009191AF01F701608171818617970710F4F6
:100E2000918380832F5F3F4FF2E0EF0EF11C12960B
:100E3000DACF0150110909F03ACF60E08DE00E944D
:100E4000B2030E948D00E12CF12CE0911702F09189
:100E50001802EE0DFF1D4081518160E070E02AE034
:100E600086E791E00E94FF00E0917601F091770122
:100E70000190F081E02D60E286E791E0099522E0A3
:100E8000E20EF11C30E1E316F104F9F66FE571E0D2
:100E900086E791E00E94EA00E0911902F0911A02BF
:100EA000E00FF11F4081518160E070E02AE086E7A9
:100EB00091E00E94FF00E0917601F09177010190AE
:100EC000F081E02D60E286E791E009950E5F1F4F0B
:100ED0000031110509F76FE571E086E791E00E94A6
:100EE000EA006FE571E086E791E00E94EA0068EEB3
:100EF00073E080E090E00E94A70494EF492E55240F
:100F00005394612C712C0E94E104672B682B692B90
:100F100041F40E94E104623071058105910508F4F5
:100F200017C10E94E10460934302709344028093CE
:100F300045029093460200913F0210914002209199
:100F4000410230914202601771078207930740F413
:100F500060933F027093400280934102909342025B
:100F600000913F02109140022091410230914202D3
:100F70006B017C01C01AD10AE20AF30A97018601CB
:100F80000A3F11052105310508F4E2C060933F02D4
:100F90007093400280934102909342024092550226
:100FA0005092560260925702709258021092590263
:100FB00010925A0210925B0210925C0280914D02D4
:100FC00090914E02A0914F02B09150028093510235
:100FD00090935202A0935302B09354020E94E104F2
:100FE00060934D0270934E0280934F029093500293
:100FF0000E94E1046093490270934A0280934B027D
:1010000090934C020E94E1046B017C0162E671E066
:101010008091890290918A020E94EA002AE041E0D0
:1010200050E060E070E08091890290918A020E9415
:10103000FF0069E671E08091890290918A020E9426
:10104000EA002AE0B701A6018091890290918A0204
:101050000E94FF006BE671E08091890290918A0204
:101060000E94EA0080914D0290914E02A0914F02A1
:10107000B0915002B701A601481B590B6A0B7B0BBC
:101080002AE08091890290918A020E94FF006BE61B
:1010900071E08091890290918A020E94EA00409159
:1010A0004D0250914E0260914F027091500280911A
:1010B000510290915202A0915302B0915402481BE8
:1010C000590B6A0B7B0B2AE08091890290918A026E
:1010D0000E94FF006DE671E08091890290918A0282
:1010E0000E94EA000E94E104AB01BC012AE0809169
:1010F000890290918A020E94FF000091890210915A
:101100008A026FE671E0C8010E94EA006FE571E0B3
:10111000C8010E94EA000E94E1046B017C014B01BE
:101120005C0122E0820E911CA11CB11C0E94E10412
:101130006C157D058E059F0508F027C10E94E1040E
:1011400060934D0270934E0280934F029093500231
:101150008091170290911802892BB1F4E09121023D
:10116000A496EFAFA497EFE2F2E0A396FFAFEEAF45
:10117000A397812C912C5401E0E0F0E0C12CD12CFC
:101180007601212C312C6EC08091190290911A02A7
:10119000892B21F341E06FE272E085E192E00E9449
:1011A00007020091210210E08FE2C82E82E0D82EC3
:1011B0008090190290901A02A0901702B090180225
:1011C000E12CF12CE016F1064CF6D401ED91FD91E5
:1011D0004D01D5018D919D915D01E81BF90BC1F089
:1011E000D6012D913C91A90160E070E09A01AB011C
:1011F000281B390B41095109A8EEB3E00E94260CC7
:101200009F0140E050E00E94550D37FD0AC002C02A
:1012100020E030E0293EB3E03B072CF028EE33E03D
:1012200002C020E030E0F601219331936F01FFEF1F
:10123000EF1AFF0AC7CFA396AEADBFADA3970D912E
:101240001D91A396BFAFAEAFA397093C110584F4DF
:10125000033311057CF43394B8EE8B0EB3E09B1E80
:10126000A11CB11CA4962FADA4973212E4CF0EC0DE
:1012700022242394D801A50194010E94740DC60E66
:10128000D71EE81EF91EE00FF11FE5CF21101DC08B
:10129000832D90E0019744EF51E0849F9001859F5A
:1012A000300D949F300D112440912502509126025B
:1012B00042175307BCF0A8EEB3E08A9FB0018B9FA2
:1012C000700D9A9F700D11240FC09F0140E050E0F7
:1012D000C701B6010E94040CB90130932602209385
:1012E000250202C060E070E0072E000C880B990B0D
:1012F0000E940B0B20E030EC4AE555E40E94400CC4
:1013000020E030E04AE754E40E94AD0C60932B02E9
:1013100070932C0280932D0290932E022DEC3CECC6
:101320004CE45EE30E94460B6B017C016093270254
:10133000709328028093290290932A0220E030E0E3
:1013400040E85FE30E94410C20E030E040E252E4DC
:101350000E94460B0E941F0D85E00E944804A701D1
:10136000960160E070E080E89FE30E94400C20E07E
:1013700030E040E252E40E94460B0E941F0D86E0DE
:101380000E9448040E94AF01BECD86169706A806AB
:10139000B90608F0CBCED2CE3F924F925F926F92B9
:1013A0007F928F929F92AF92BF92CF92DF92EF92F5
:1013B000FF920F931F93CF93DF93DC01ED91FC918C
:1013C00036970190F081E02DE80FF91F0284F38534
:1013D000E02DEF2B09F4CBC0E22EF42E5B01EC01E3
:1013E000D22EA881B9811697ED91FC911197EC0F3F
:1013F000FD1F8485D81658F50D2D10E0868597853C
:10140000F801EE0FFF1FEA0DFB1D91838083ED9124
:10141000FC91EC0FFD1F0284F385E02DE00FF11F1E
:1014200061E080810E94E203E881F98136970190B2
:10143000F081E02DEC0FFD1F82859385FC01E00F0C
:10144000F11F61E080810E94B203DF0CCACF83E20A
:1014500090E00197F1F71E2DE881F9813697019010
:10146000F081E02DEC0FFD1F84851817F0F4C12EDC
:10147000D12C0284F385E02DEC0DFD1D60E0808110
:101480000E94E203E881F98136970190F081E02D16
:10149000EC0FFD1F82859385FC01EC0DFD1D60E0C6
:1014A00080810E94B2031F0DD7CF0E94E2012B0161
:1014B0003C010E94E201AB01BC01441955096609D7
:1014C0007709E881F98136970190F081E02DEC0FE2
:1014D000FD1F86859785A0E0B0E0481759076A0789
:1014E0007B0708F044C00E94E2016B01C418D508D4
:1014F0008E2CE881F98136970190F081E02DEC0F78
:10150000FD1F84858816A8F6082D10E00284F38557
:10151000E02DE00FF11FA081B0E0FD01E255FF4F8B
:101520008491FD01E656FF4F9490FD01EA57FF4F6D
:101530003490332071F081110E94B901E32DF0E065
:10154000EE0FFF1FE859FF4FA591B491EC919E2239
:1015500061F4000F111FF501E00FF11F80819181EF
:10156000C816D90610F4D182C0828F0CC2CFDF9189
:10157000CF911F910F91FF90EF90DF90CF90BF9090
:10158000AF909F908F907F906F905F904F903F9023
:101590000895DC01ED91FC913E970190F081E02DE2
:1015A0008E0F9F1F0C94CC0984E391E0909314025A
:1015B0008093130284E291E09093160280931502C7
:1015C00080911F0290912002009711F00E94170E47
:1015D0008091190290911A02009711F00E94170E43
:1015E00080911D0290911E02009711F00E94170E2B
:1015F0008091170290911802009711F00E94170E27
:1016000080911B0290911C02009711F00C94170E10
:101610000895E89409C097FB3EF4909580957095E5
:1016200061957F4F8F4F9F4F9923A9F0F92F96E92E
:10163000BB279395F695879577956795B795F111A3
:10164000F8CFFAF4BB0F11F460FF1BC06F5F7F4F40
:101650008F4F9F4F16C0882311F096E911C0772352
:1016600021F09EE8872F762F05C0662371F096E85B
:10167000862F70E060E02AF09A95660F771F881F2A
:10168000DAF7880F9695879597F908950E94590B78
:101690000C94CA0B0E94BC0B38F00E94C30B20F0C4
:1016A000952311F00C94B30B0C94B90B11240C94EA
:1016B000FE0B0E94DB0B70F3959FC1F3950F50E07A
:1016C000551F629FF001729FBB27F00DB11D639FF4
:1016D000AA27F00DB11DAA1F649F6627B00DA11D9A
:1016E000661F829F2227B00DA11D621F739FB00D40
:1016F000A11D621F839FA00D611D221F749F3327B0
:10170000A00D611D231F849F600D211D822F762F48
:101710006A2F11249F5750409AF0F1F088234AF025
:10172000EE0FFF1FBB1F661F771F881F9150504091
:10173000A9F79E3F510580F00C94B30B0C94FE0B5F
:101740005F3FE4F3983ED4F3869577956795B79518
:10175000F795E7959F5FC1F7FE2B880F911D969532
:10176000879597F9089597F99F6780E870E060E0A2
:1017700008959FEF80EC089500240A94161617062A
:1017800018060906089500240A9412161306140672
:1017900005060895092E0394000C11F4882352F0D5
:1017A000BB0F40F4BF2B11F460FF04C06F5F7F4F8D
:1017B0008F4F9F4F089557FD9058440F551F59F074
:1017C0005F3F71F04795880F97FB991F61F09F3F2E
:1017D00079F087950895121613061406551FF2CF57
:1017E0004695F1DF08C0161617061806991FF1CFA7
:1017F00086957105610508940895E894BB276627CE
:101800007727CB0197F90895A1E21A2EAA1BBB1BDB
:10181000FD010DC0AA1FBB1FEE1FFF1FA217B307BC
:10182000E407F50720F0A21BB30BE40BF50B661FD2
:10183000771F881F991F1A9469F760957095809596
:1018400090959B01AC01BD01CF0108950E94310C20
:10185000A59F900DB49F900DA49F800D911D112404
:101860000895A29FB001B39FC001A39F700D811D79
:101870001124911DB29F700D811D1124911D089599
:101880005058BB27AA270E94580C0C94CA0B0E94E0
:10189000BC0B38F00E94C30B20F039F49F3F19F4C1
:1018A00026F40C94B90B0EF4E095E7FB0C94B30B03
:1018B000E92F0E94DB0B58F3BA17620773078407FE
:1018C000950720F079F4A6F50C94FD0B0EF4E09545
:1018D0000B2EBA2FA02D0B01B90190010C01CA01EA
:1018E000A0011124FF27591B99F0593F50F4503E95
:1018F00068F11A16F040A22F232F342F4427585F87
:10190000F3CF469537952795A795F0405395C9F79E
:101910007EF41F16BA0B620B730B840BBAF0915056
:10192000A1F0FF0FBB1F661F771F881FC2F70EC0F5
:10193000BA0F621F731F841F48F4879577956795C8
:10194000B795F7959E3F08F0B0CF9395880F08F0B4
:101950009927EE0F9795879508950E94C10C0C94D6
:10196000CA0B0E94C30B58F00E94BC0B40F029F434
:101970005F3F29F00C94B30B51110C94FE0B0C94A7
:10198000B90B0E94DB0B68F39923B1F3552391F354
:10199000951B550BBB27AA2762177307840738F0DE
:1019A0009F5F5F4F220F331F441FAA1FA9F335D03B
:1019B0000E2E3AF0E0E832D091505040E695001CEF
:1019C000CAF72BD0FE2F29D0660F771F881FBB1FA9
:1019D000261737074807AB07B0E809F0BB0B802D87
:1019E000BF01FF2793585F4F3AF09E3F510578F0B3
:1019F0000C94B30B0C94FE0B5F3FE4F3983ED4F3CE
:101A0000869577956795B795F7959F5FC9F7880F86
:101A1000911D9695879597F90895E1E0660F771FD8
:101A2000881FBB1F621773078407BA0720F0621B69
:101A3000730B840BBA0BEE1F88F7E09508950E9494
:101A4000260D6894B1110C94FE0B08950E94E30BCF
:101A500088F09F5798F0B92F9927B751B0F0E1F06F
:101A6000660F771F881F991F1AF0BA95C9F714C01F
:101A7000B13091F00E94FD0BB1E008950C94FD0B84
:101A8000672F782F8827B85F39F0B93FCCF3869558
:101A900077956795B395D9F73EF4909580957095B5
:101AA00061957F4F8F4F9F4F0895052E97FB1EF432
:101AB00000940E946C0D57FD07D00E94040C07FC97
:101AC00003D04EF40C946C0D5095409530952195B3
:101AD0003F4F4F4F5F4F089590958095709561955A
:101AE0007F4F8F4F9F4F0895B7FF0C94260C0E9495
:101AF000260C821B930B0895EE0FFF1F0590F491A7
:101B0000E02D0994CF93DF938230910510F482E0A9
:101B100090E0E0919A02F0919B0220E030E0C0E07A
:101B2000D0E0309711F14081518148175907C0F03A
:101B30004817590761F482819381209719F09B839C
:101B40008A832BC090939B0280939A0226C0211512
:101B5000310519F04217530718F49A01BE01DF014D
:101B6000EF010280F381E02DDCCF2115310509F171
:101B7000281B390B2430310590F412968D919C91DD
:101B800013976115710521F0FB019383828304C0D3
:101B900090939B0280939A02FD01329644C0FD010E
:101BA000E20FF31F81939193225031092D933C93BF
:101BB0003AC02091980230919902232B41F4209150
:101BC0000A0130910B0130939902209398022091E1
:101BD0000801309109012115310541F42DB73EB7B7
:101BE00040910C0150910D01241B350BE09198029E
:101BF000F0919902E217F307A0F42E1B3F0B281770
:101C0000390778F0AC014E5F5F4F2417350748F075
:101C10004E0F5F1F509399024093980281939193C6
:101C200002C0E0E0F0E0CF01DF91CF9108950F9383
:101C30001F93CF93DF93009709F48CC0FC01329778
:101C40001382128200919A0210919B0201151105D4
:101C500081F420813181820F931F2091980230916D
:101C600099022817390779F5F0939902E0939802C1
:101C700071C0D80140E050E0AE17BF0750F4129693
:101C80002D913C911397AD012115310509F1D90131
:101C9000F3CF9D01DA013383228360817181860F46
:101CA000971F8217930769F4EC0128813981260F69
:101CB000371F2E5F3F4F318320838A819B8193831F
:101CC0008283452B29F4F0939B02E0939A0242C051
:101CD0001396FC93EE931297ED01499159919E0151
:101CE000240F351FE217F30771F480819181840F6F
:101CF000951F029611969C938E93828193811396E1
:101D00009C938E931297E0E0F0E0D80112968D91AB
:101D10009C911397009719F0F8018C01F6CF8D91E3
:101D20009C9198012E5F3F4F820F931F2091980244
:101D3000309199022817390769F4309729F41092E5
:101D40009B0210929A0202C013821282109399028F
:101D500000939802DF91CF911F910F91089581E038
:101D600090E0F8940C94B40E10E0C2E6D0E004C009
:101D7000FE010E947C0D2196C336D107C9F7F89465
:021D8000FFCF93
:101D8200020E0F081112130300009C0280000000D3
:101D920000004903B50072019003A301810195017E
:101DA20000000000070233041E04890287020200B9
:101DB20000000000D602CC09FEFF00000000000077
:101DC2000000FEFF0000070233041E048902C90A54
:101DD200564D4450565F317C315F564D4450560D3E
:101DE2000A00564D4450455F003A323A007C005F8B
:061DF200564D445045006F
:00000001FF
